:020000040800F2
:1000000000500020890F00085D0F00085F0F0008F6
:10001000610F0008630F0008650F00080000000072
:10002000000000000000000000000000670F000852
:10003000690F0008000000006B0F00086D0F00083A
:10004000D10F0008D10F0008D10F0008D10F000810
:10005000D10F0008D10F0008D10F0008D10F000800
:10006000D10F0008D10F0008D10F0008D10F0008F0
:10007000D10F0008D10F0008D10F0008D10F0008E0
:10008000D10F0008D10F0008D10F0008D10F0008D0
:10009000750F0008D10F0008D10F0008D10F00081C
:1000A000D10F0008D10F0008D10F0008D10F0008B0
:1000B000D10F0008D10F0008D10F0008D10F0008A0
:1000C000D10F0008D10F0008D10F0008D10F000890
:1000D000D10F0008D10F0008D10F0008D10F000880
:1000E000D10F0008D10F0008D10F00080000000058
:1000F0000000000000000000000000000000000000
:0C01000000000000000000005FF808F1A3
:1001100010B5054C237833B9044B13B10448AFF341
:1001200000800123237010BDF401002000000000B6
:100130008854000808B5034B1BB103490348AFF3CB
:10014000008008BD00000000F8010020885400086D
:1001500081F0004102E000BF83F0004330B54FEA78
:1001600041044FEA430594EA050F08BF90EA020FE5
:100170001FBF54EA000C55EA020C7FEA645C7FEA78
:10018000655C00F0E2804FEA5454D4EB5555B8BF9B
:100190006D420CDD2C4480EA020281EA030382EA0C
:1001A000000083EA010180EA020281EA0303362D9E
:1001B00088BF30BD11F0004F4FEA01314FF4801C71
:1001C0004CEA113102D0404261EB410113F0004F83
:1001D0004FEA03334CEA133302D0524263EB43033A
:1001E00094EA050F00F0A780A4F10104D5F1200ED8
:1001F0000DDB02FA0EFC22FA05F2801841F1000133
:1002000003FA0EF2801843FA05F359410EE0A5F106
:1002100020050EF1200E012A03FA0EFC28BF4CF037
:10022000020C43FA05F3C01851EBE37101F00045ED
:1002300007D54FF0000EDCF1000C7EEB00006EEBFA
:100240000101B1F5801F1BD3B1F5001F0CD3490884
:100250005FEA30004FEA3C0C04F101044FEA4452DB
:1002600012F5800F80F09A80BCF1004F08BF5FEA62
:10027000500C50F1000041EB045141EA050130BD42
:100280005FEA4C0C404141EB010111F4801FA4F1E5
:100290000104E9D191F0000F04BF01460020B1FA3A
:1002A00081F308BF2033A3F10B03B3F120020CDA72
:1002B0000C3208DD02F1140CC2F10C0201FA0CF050
:1002C00021FA02F10CE002F11402D8BFC2F1200CB5
:1002D00001FA02F120FA0CFCDCBF41EA0C0190406B
:1002E000E41AA2BF01EB0451294330BD6FEA0404B4
:1002F0001F3C1CDA0C340EDC04F11404C4F120029F
:1003000020FA04F001FA02F340EA030021FA04F3B0
:1003100045EA030130BDC4F10C04C4F1200220FA07
:1003200002F001FA04F340EA0300294630BD21FA45
:1003300004F0294630BD94F0000F83F4801306BF0B
:1003400081F480110134013D4EE77FEA645C18BFFF
:100350007FEA655C29D094EA050F08BF90EA020F96
:1003600005D054EA000C04BF1946104630BD91EA8E
:10037000030F1EBF0021002030BD5FEA545C05D191
:100380004000494128BF41F0004130BD14F58004D0
:100390003CBF01F5801130BD01F0004545F0FE4144
:1003A00041F470014FF0000030BD7FEA645C1ABF79
:1003B000194610467FEA655C1CBF0B46024650EAB0
:1003C000013406BF52EA033591EA030F41F40021DC
:1003D00030BD00BF90F0000F04BF0021704730B562
:1003E0004FF4806404F132044FF000054FF0000137
:1003F00050E700BF90F0000F04BF0021704730B5F8
:100400004FF4806404F1320410F0004548BF4042CC
:100410004FF000013EE700BF42004FEAE2014FEA21
:1004200031014FEA02701FBF12F07F4393F07F4FFC
:1004300081F06051704732F07F4208BF704793F0FF
:100440007F4F04BF41F40021704730B54FF4607412
:1004500001F0004521F000411CE700BF50EA010215
:1004600008BF704730B54FF000050AE050EA0102BE
:1004700008BF704730B511F0004502D5404261EB2E
:1004800041014FF4806404F132045FEA915C3FF46F
:10049000D8AE4FF003025FEADC0C18BF03325FEA0C
:1004A000DC0C18BF033202EBDC02C2F1200300FABD
:1004B00003FC20FA02F001FA03FE40EA0E0021FAE2
:1004C00002F11444BDE600BF70B54FF0FF0C4CF4D0
:1004D000E06C1CEA11541DBF1CEA135594EA0C0F82
:1004E00095EA0C0F00F0DEF82C4481EA030621EABD
:1004F0004C5123EA4C5350EA013518BF52EA0335F8
:1005000041F4801143F4801338D0A0FB02CE4FF0A9
:100510000005E1FB02E506F00042E0FB03E54FF0D9
:100520000006E1FB03569CF0000F18BF4EF0010ED1
:10053000A4F1FF04B6F5007F64F5407404D25FEACD
:100540004E0E6D4146EB060642EAC62141EA555180
:100550004FEAC52040EA5E504FEACE2EB4F1FD0CC2
:1005600088BFBCF5E06F1ED8BEF1004F08BF5FEA40
:10057000500E50F1000041EB045170BD06F00046F2
:1005800046EA010140EA020081EA0301B4EB5C049F
:10059000C2BFD4EB0C0541EA045170BD41F4801197
:1005A0004FF0000E013C00F3AB8014F1360FDEBFBC
:1005B000002001F0004170BDC4F10004203C35DA98
:1005C0000C341BDC04F11404C4F1200500FA05F31B
:1005D00020FA04F001FA05F240EA020001F00042BC
:1005E00021F0004110EBD37021FA04F642EB060132
:1005F0005EEA430E08BF20EAD37070BDC4F10C045C
:10060000C4F1200500FA04F320FA05F001FA04F21F
:1006100040EA020001F0004110EBD37041F100010B
:100620005EEA430E08BF20EAD37070BDC4F1200516
:1006300000FA05F24EEA020E20FA04F301FA05F27E
:1006400043EA020321FA04F001F0004121FA04F226
:1006500020EA020000EBD3705EEA430E08BF20EAF6
:10066000D37070BD94F0000F0FD101F00046400030
:1006700041EB010111F4801F08BF013CF7D041EAB2
:10068000060195F0000F18BF704703F000465200B6
:1006900043EB030313F4801F08BF013DF7D043EA87
:1006A0000603704794EA0C0F0CEA135518BF95EA3D
:1006B0000C0F0CD050EA410618BF52EA4306D1D1C4
:1006C00081EA030101F000414FF0000070BD50EAE3
:1006D000410606BF1046194652EA430619D094EA6D
:1006E0000C0F02D150EA013613D195EA0C0F05D157
:1006F00052EA03361CBF104619460AD181EA0301AB
:1007000001F0004141F0FE4141F470014FF0000062
:1007100070BD41F0FE4141F4780170BD70B54FF0FD
:10072000FF0C4CF4E06C1CEA11541DBF1CEA13557D
:1007300094EA0C0F95EA0C0F00F0A7F8A4EB05045F
:1007400081EA030E52EA03354FEA013100F0888056
:100750004FEA03334FF0805545EA131343EA12631F
:100760004FEA022245EA111545EA10654FEA0026D4
:100770000EF000419D4208BF964244F1FD0404F58D
:10078000407402D25B084FEA3202B61A65EB0305E9
:100790005B084FEA32024FF480104FF4002CB6EBA6
:1007A000020E75EB030E22BFB61A754640EA0C0026
:1007B0005B084FEA3202B6EB020E75EB030E22BF66
:1007C000B61A754640EA5C005B084FEA3202B6EBA7
:1007D000020E75EB030E22BFB61A754640EA9C0066
:1007E0005B084FEA3202B6EB020E75EB030E22BF36
:1007F000B61A754640EADC0055EA060E18D04FEAF4
:10080000051545EA16754FEA06164FEAC30343EA93
:1008100052734FEAC2025FEA1C1CC0D111F4801F60
:100820000BD141EA00014FF000004FF0004CB6E759
:1008300011F4801F04BF01430020B4F1FD0C88BFF8
:10084000BCF5E06F3FF6AFAEB5EB030C04BFB6EB03
:10085000020C5FEA500C50F1000041EB045170BDF6
:100860000EF0004E4EEA113114EB5C04C2BFD4EB23
:100870000C0541EA045170BD41F480114FF0000EA7
:10088000013C90E645EA060E8DE60CEA135594EA23
:100890000C0F08BF95EA0C0F3FF43BAF94EA0C0F26
:1008A0000AD150EA01347FF434AF95EA0C0F7FF49B
:1008B00025AF104619462CE795EA0C0F06D152EAEF
:1008C00003353FF4FDAE1046194622E750EA4106D3
:1008D00018BF52EA43067FF4C5AE50EA41047FF4E4
:1008E0000DAF52EA43057FF4EBAE12E74FEA410247
:1008F00012F5001215D211D56FF47873B3EB625272
:1009000012D94FEAC12343F0004343EA505311F098
:10091000004F23FA02F018BF404270474FF000002A
:10092000704750EA013005D111F0004008BF6FF068
:10093000004070474FF00000704700BF4A0011D2DE
:1009400012F5001211D20DD56FF47873B3EB625229
:100950000ED44FEAC12343F0004343EA505323FA35
:1009600002F070474FF00000704750EA013002D1AA
:100970004FF0FF3070474FF000007047F0B583B084
:1009800003F0B8FB002003F0ABFC394C204600F02C
:10099000E9FC0021204600F0ADFC4FF40074224633
:1009A0000021344804F01AFD22460121324804F0A7
:1009B00015FD0020314B18604CF2186300930123A1
:1009C0008022132103F038FC4FF4FC6003F094FC08
:1009D00078244CF2186704260125009733462A46EE
:1009E0000D21A0B203F028FC0A3CF6D100221146EA
:1009F000234803F087FC234C2178C1F13201002207
:100A000089B2214803F07EFC2078FFF7F3FC002236
:100A10001E4BFFF759FD02460B4600201C49FFF70D
:100A20009BFBFFF78BFF002281B21A4803F06AFCA0
:100A30004FF4FC640094072301220B21322003F0C1
:100A4000FBFB0094072301220B21642003F0F4FB3D
:100A5000074C0021204600F099FB204600F0F4FBF3
:100A6000962000F033FD204600F099FB03B0F0BD66
:100A70002006002014040020140200201002002090
:100A8000B054000818000020B45400080000F83FDB
:100A900000005940B85400082DE9F04782B0504C8E
:100AA000504B1978204600F071FB204600F0CCFB3B
:100AB000322003F057FC4C4B1B680133072B34DC0E
:100AC000494A1360484B18687830484B1B68C3EBA1
:100AD00043139BB200930A230122002180B203F04A
:100AE000ABFB3F4C204600F05AFB204600F00EFCCA
:100AF00038B13C4B19783E4A52F82130013342F864
:100B00002130384B1B783A4A52F82320394909687A
:100B10008A42C4BF37490A600133DBB2802B0ED052
:100B2000304A137002B0BDE8F0872F4B00221A60E4
:100B30002E4A1368B3FA83F35B091360C2E7294BAB
:100B400001221A704FF400512B4800F037FE2B4B56
:100B500000221A701C46264D1FA7D7E9006794F89B
:100B600000A055F82A00264B43F82A00FFF742FC64
:100B700032463B46FFF7A8FC804689461D4B186865
:100B8000FFF738FC02460B4640464946FFF7C6FDD4
:100B9000FFF7ACFE1FFA80F8C8F16C030022009248
:100BA0009BB201221421504603F046FB08F10103D9
:100BB000C8F17F0120784FF6E07200929BB20122CB
:100BC00089B203F039FB23780133DBB22370802B29
:100BD000C5D9A7E7AFF300800000000000C05A406D
:100BE0002006002000000020180600201C0600201F
:100BF0001404002010020020001001401406002000
:100C00001402002008B519221D21024800F0ACFA98
:100C100008BD00BF2006002008B5024800F0FBFB1D
:100C200008BD00BF2006002000B595B000230C933E
:100C30000D930F93109305930693079308930993CD
:100C4000019302930393049301220A924FF4803399
:100C50000B930E920222119212934FF4E01313930E
:100C60000AA801F0E3FCC0B90F2305930221069105
:100C7000002307934FF480620892099305A801F0BE
:100C800025FF60B9102301930023049301A801F00C
:100C9000D5FF30B915B05DF804FB72B6FEE772B649
:100CA000FEE772B6FEE700002DE9F04389B000F0E0
:100CB000E9FBFFF7B9FF0024049405940694079418
:100CC000554B9A6942F010029A619A6902F010023B
:100CD0000092009A9A6942F020029A619A6902F0A1
:100CE00020020192019A9A6942F008029A619A6977
:100CF00002F008020292029A9A6942F004029A6192
:100D00009B6903F004030393039BDFF82C912246B5
:100D10004FF40051484600F04BFD404D01224FF486
:100D20008051284600F044FDDFF8108101224FF485
:100D30008071404600F03CFD22464FF46071284629
:100D400000F036FD4FF400530493012605960694F7
:100D50000227079704A9484600F034FC4FF480535B
:100D60000493059606944FF00309CDF81C9004A94E
:100D7000284600F027FC4FF48073049305960694F0
:100D8000CDF81C9004A9404600F01CFC4FF46073A1
:100D9000049305960694079704A9284600F012FCD0
:100DA00004F00AF91E481F4B03604FF4827343603E
:100DB0008460C460046144614FF400738361102354
:100DC000C3610462446284620A23C36202F046F88B
:100DD000F0B91548154B03604FF48273436000234C
:100DE0008360C360036143614FF40072826110222B
:100DF000C2610362436283620A23C36202F02EF877
:100E000040B90B4B1B6898470A4B1C68A047FDE78D
:100E100072B6FEE772B6FEE700100240000C014019
:100E2000BC08002000300140640800200038004069
:100E300008000020040000200010014000080140CC
:100E400072B6FEE782B00E4B9A6942F001029A61D7
:100E50009A6902F001020092009ADA6942F0805227
:100E6000DA61DB6903F080530193019B054A536803
:100E700023F0E06343F00073536002B0704700BF9B
:100E8000001002400000014010B588B00023049318
:100E900005930693079303682B4A934204D02B4A89
:100EA000934226D008B010BD294B9A6942F4805273
:100EB0009A619A6902F480520092009A9A6942F00B
:100EC00008029A619B6903F008030193019B2823A0
:100ED0000493022305930323079304A91D4800F0FC
:100EE00071FB1D4A536843F0E06343F00103536014
:100EF000D8E7174BDA6942F48042DA61DA6902F422
:100F000080420292029A9A6942F008029A619B69B1
:100F100003F008030393039B4FF42043049302233D
:100F20000593032307930B4C04A9204600F04AFBCA
:100F30004FF48043049300230593069304A92046AD
:100F400000F040FBAEE700BF003001400038004039
:100F500000100240000C014000000140FEE7FEE7E7
:100F6000FEE7FEE7FEE770477047704708B500F000
:100F70009BFA08BD08B5024800F0CFFC08BD00BFD1
:100F8000AC15002070470000002103E00B4B5B58BC
:100F9000435004310A480B4B42189A42F6D30A4A8E
:100FA00002E0002342F8043B084B9A42F9D3FFF7D2
:100FB000E9FF04F0E7F9FFF777FE7047805D00086E
:100FC00000000020F4010020F40100209818002007
:100FD000FEE708B5407903F0ADF9052003F0C2F94A
:100FE00008BD08B5037942799A4202D0184603F049
:100FF000A1F908BD70B584B006460C460021FFF784
:10100000E8FF04F01F048DF80C400E4C02250095FB
:10101000012302AA03A9204602F04CF8FF238DF811
:101020000C300095012302AA03A9204602F042F8E1
:101030009DF8084001213046FFF7CBFF204604B061
:1010400070BD00BF640800202DE9F04184B0074660
:101050000D46144698460021FFF7BBFF05F01F051B
:1010600045F020058DF80C5002230093012302AABD
:1010700003A9124802F01EF89DF80860B8F1000FAD
:1010800014D008F1FF35EDB201352544DFF82C808E
:1010900014F8013B8DF80C3002230093012302AABF
:1010A00003A9404602F006F8AC42F1D101213846CE
:1010B000FFF78FFF304604B0BDE8F08164080020E0
:1010C0002DE9F04184B007460C4690460021FFF719
:1010D00080FF04F01F0444F020048DF80C400E4CF7
:1010E00002250095012302AA03A9204601F0E2FF90
:1010F0009DF808608DF80C800095012302AA03A9D1
:10110000204601F0D7FF01213846FFF762FF304645
:1011100004B0BDE8F08100BF6408002030B585B0A0
:1011200005460C460021FFF754FF8DF80C400223C2
:101130000093012302AA03A9054801F0BBFF9DF813
:10114000084001212846FFF744FF204605B030BD86
:101150006408002008B5E221FFF7E0FF08BD08B5EC
:10116000E121FFF7DBFF08BD70B504460E461546CA
:1011700000F05AF9267165710023237220226272F1
:10118000A37205222274E372204670BD08B50A4698
:101190007D2928BF7D220521FFF792FF08BD10B5EC
:1011A00004460021FFF71DFF606903F0DBF81D21F5
:1011B0002046FFF71FFF10F0020F15D10021204637
:1011C000FFF718FF00F0FE0200212046FFF778FF2E
:1011D00002212046FFF70EFF40F00102D2B20221A9
:1011E0002046FFF76DFF10BD606903F0BBF8204695
:1011F000FFF7B5FFE2E710B504460021FFF7FAFE5E
:1012000010F0020F00D010BD40F00202D2B2002157
:101210002046FFF755FF052000F058F9F3E70000DE
:1012200038B504460D460221FFF7E4FE054B5B5D31
:1012300001229A4020EA0202D2B202212046FFF7A0
:101240003FFF38BDCC54000810B50446FFF7D3FF6C
:1012500000212046FFF7CEFE40F00102D2B200216D
:101260002046FFF72DFF702207212046FFF728FFB9
:1012700001212046FFF7B5FEE37A73B1237C04F128
:101280000B020A212046FFF7DFFE1D212046FFF753
:10129000B1FE10F0020F05D110BD00212046FFF76E
:1012A000BFFFF2E72046FFF75AFFF5E770B584B0BD
:1012B00006460021FFF78DFE50238DF80C300C4CB4
:1012C00002250095012302AA03A9204601F0F2FE9F
:1012D00073238DF80C300095012302AA03A9204640
:1012E00001F0E8FE01213046FFF773FE04B070BD47
:1012F0006408002008B521B900220121FFF7E0FEB3
:1013000008BD3F220121FFF7DBFEF9E708B50921FF
:10131000FFF770FE00F0010008BD70B505460E46EF
:101320000621FFF767FE00F0D704022E14D0012E2D
:1013300012BFFA2344F00804BE236B612246062143
:101340002846FFF7BDFE06212846FFF753FEA042C0
:1013500014BF0020012070BD44F020044FF4E1735D
:101360006B61EBE738B5044600F064F800212046D5
:10137000FFF737FE01212046FFF72BFE052000F086
:10138000A5F80C2200212046FFF79AFE5F220421D7
:101390002046FFF795FE02212046FFF7BEFF08B169
:1013A0000123237206212046FFF724FE0546002173
:1013B0002046FFF7B2FF2046FFF778FF00221D21ED
:1013C0002046FFF77DFE00221C212046FFF778FE15
:1013D000702207212046FFF773FE4C212046FFF7BD
:1013E000D5FE2046FFF7B6FE2046FFF7B8FE2046A2
:1013F000FFF701FF00212046FFF7FCFD00F0FE0291
:1014000000212046FFF75CFE681EC0B2FD288CBF9D
:101410000020012038BD704710B50446042103F0B8
:10142000ADFF204610BD0000014B0360704700BFB8
:10143000DC5400087047000010B504460E4B1878C5
:101440004FF47A73B3FBF0F30C4A1068B0FBF3F07F
:1014500000F0A2F868B90F2C01D901200AE000229F
:1014600021464FF0FF3000F057F8054B1C6000207C
:1014700000E0012010BD00BF100000200C00002083
:101480001400002008B5074A136843F010031360E6
:10149000032000F02FF80020FFF7CEFFFFF7D2FC6B
:1014A000002008BD00200240034A1168034B1B784E
:1014B0000B441360704700BF140900201000002087
:1014C000014B1868704700BF1409002038B5044666
:1014D000FFF7F6FF0546B4F1FF3F02D0044B1B783F
:1014E0001C44FFF7EDFF401BA042FAD338BD00BFFC
:1014F00010000020074AD36823F4E0631B041B0C90
:1015000043F0BF6343F40033000200F4E0600343A0
:10151000D360704700ED00E030B4164BDB68C3F3D6
:101520000223C3F10704042C28BF04241D1D062D2B
:101530008CBF033B00234FF0FF3505FA04F421EA8A
:101540000401994005FA03F322EA03031943002832
:1015500009DB0901C9B200F1604000F5614080F883
:10156000001330BC704700F00F000901C9B2024BF4
:101570001954F6E700ED00E014ED00E0002808DB68
:10158000420900F01F00012303FA00F0014B43F869
:101590002200704700E100E00138B0F1807F0AD2FC
:1015A000064B5860064AF02182F82310002098600C
:1015B00007221A6070470120704700BF10E000E06A
:1015C00000ED00E00B68002B00F0E0802DE9F04F0B
:1015D00083B000252A46DFF8C4C16D4CDFF8C08116
:1015E000DFF8C0E1A2E0B9F1000F1BD0B9F1010FA3
:1015F00023D1CD6821E0F14514D00BD9654FB94511
:1016000010D007F58037B9450CD0DFF89CA1D14543
:1016100013D107E0DFF894A1D14503D00AF5803A51
:10162000D1450AD18D68002D00F0A280012D0CBF9C
:1016300006614661082500E00025FF2B99BF824620
:10164000066800F1040A4668FF2B91BF4FEA820941
:1016500002F18049A9F108094FEA89094FF00F0BFF
:101660000BFA09FB26EA0B0605FA09F946EA090610
:10167000CAF800604E6816F0805F52D0464FBE69CF
:1016800046F00106BE61BE6906F001060196019EA4
:1016900022F0030606F1804606F58036D6F808A04B
:1016A00002F003094FEA890B4FF00F0909FA0BF911
:1016B0002AEA090A60455DD040455ED0A7F580372B
:1016C000B8425DD007F58067B8420CBF4FF0030900
:1016D0004FF0040909FA0BF949EA0A09C6F808901B
:1016E0004E6816F4803F266814BF1E439E43266052
:1016F0004E6816F4003F666814BF1E439E43666042
:101700004E6816F4801FA66814BF1E439E43A66051
:101710004E6816F4001FE66814BF334326EA03033D
:10172000E36001320B6833FA02F62CD001269640B2
:1017300033409E42F5D1D1F80490B9F1120F14D084
:101740003FF659AFB9F1020F0CD07FF64CAFB9F1AB
:10175000030F3FF471AFB9F1110F7FF46EAFCD6895
:1017600004356AE7CD68083567E7CD680C3564E76E
:10177000042562E74FF00009ACE74FF00109A9E743
:101780004FF00209A6E703B0BDE8F08F704700BF35
:101790000004014000003110001002400008014028
:1017A000000C014000002110000022100000111068
:1017B00012B909040161704701617047C36801EA09
:1017C000030221EA030141EA024101617047F0B5D9
:1017D00087B0002872D0044690F8A932D3B1032311
:1017E00084F8A932206801F090FD254655F8107B59
:1017F0006E460FCD0FC62B683360231D0ECB3846C7
:1018000001F073FD58B1022384F8A932012528465E
:1018100007B0F0BD80F8A83203F09CFCDFE70021A0
:10182000206801F07CFD606850B3002301261D464E
:101830009900CA1804EBC20282F8296082F82830A5
:10184000D38682F82B509563D56315640133DBB2E0
:101850008342EDD300231D469900CA1804EBC2024F
:1018600082F8695182F8683182F86B51C2F8785178
:10187000C2F87C51C2F880510133DBB28342EBD312
:10188000254655F8107B6E460FCD0FC62B6833608A
:10189000231D0ECB384601F044FD054620B102233E
:1018A00084F8A9320125B2E7002384F8243001230B
:1018B00084F8A932206802F02AF8A8E70125A6E7F3
:1018C00038B590F8A832012B11D00446012580F8D4
:1018D000A852006801F010FD2946204603F04DFD96
:1018E000206802F012F8002084F8A80238BD022017
:1018F000FCE790F8A832012B0DD010B50446012367
:1019000080F8A83280F82410006801F0F8FF002069
:1019100084F8A80210BD022070472DE9F04784B07A
:101920000446006801F0F5FF10F4004F40F0978086
:10193000206801F0EEFF10F4806F40F0CD84206845
:1019400001F0E7FF10F4804F08D02268B2F844306D
:1019500023F480431B041B0CA2F84430206801F0E0
:10196000D8FF10F4005F08D02268B2F8443023F4A6
:1019700000531B041B0CA2F84430206801F0C9FF7F
:1019800010F4805F40F0BA84206801F0C2FF10F4C8
:10199000006F4BD026683346ADF1020206F12005F8
:1019A000114633F8040B21F8020FAB42F9D1B6F817
:1019B000403043F00103A6F840302168B1F84030D0
:1019C00023F001031B041B0CA1F840302168B1F87F
:1019D000443013F4806FFAD0B1F8443023F48063BC
:1019E0001B041B0CA1F844300023216832F8020FBD
:1019F000C8520433202BF8D12268B2F8403043F0AB
:101A00000803A2F840302268B2F8443023F400639F
:101A10001B041B0CA2F844302268B2F8403043F09B
:101A20000403A2F84030204603F0EAFB206801F0EE
:101A300070FF10F4007F40F08184206801F069FF9E
:101A400010F4807F08D02268B2F8443023F4807309
:101A50001B041B0CA2F8443004B0BDE8F08700263C
:101A600048F280074CF280082068B0F8443013F444
:101A7000004F3FF45DAFB0F844309BB213F00F0558
:101A800040F0C38013F0100F52D003889BB213F4C0
:101A9000006F40F0818013F4004FE5D0038823F0FD
:101AA00070031B051B0D43F0800303802068B0F812
:101AB000503094F8682103EBC20300EB4303B3F802
:101AC0000C34C3F30903C4F884318BB1D4F87C110E
:101AD00071B1B4F86E2102F052FAD4F87C31D4F826
:101AE00084211344C4F87C313146204603F05AFB6C
:101AF0002368B3F8501089B203F20C43D4F878216C
:101B0000002A6AD15A5A22F4F8421204120C5A528C
:101B10005A5A42F400425A52226813889BB223F464
:101B2000804323F0700383F440533B4313809BE7CF
:101B300003889BB223F4E14323F070036FEA43432D
:101B40006FEA53439BB203802368B3F8502094F8A4
:101B5000281002EBC10203EB4203B3F80434C3F3D1
:101B600009036364E26B1344E3633146204603F0E8
:101B700025FB94F82430002B3FF476AF236C002B28
:101B80007FF472AF94F82430226843F08003A2F807
:101B90004C3084F8246067E7B0F8503094F868213E
:101BA00003EBC20300EB4303B3F80C34C3F30903A4
:101BB000C4F88431B4F86E2104F52C7102F0DFF919
:101BC0002268138823F070031B051B0D43F080036C
:101BD0001380204603F0DEFA46E73E2A08D8500874
:101BE00012F0010F18BF0130820292B25A5293E7ED
:101BF000500912F01F0F08BF00F1FF306FEAC062FA
:101C00006FEA524292B25A5286E730F825901FFA94
:101C100089F919F4004F51D119F0800F3FF424AF26
:101C2000226832F825309BB223F4E14323F070039D
:101C30006FEA43436FEA53439BB222F8253005EB2A
:101C4000850A04EBCA0A9AF82B30022B00F0A8810F
:101C50002068B0F8503005EB850204EBC202126C2C
:101C60009AF82810023303EBC10300EB4303B3F8E7
:101C70000034C3F309039A4240F2DD81D21A05EB26
:101C8000850104EBC1010A64002A00F0D981AA0091
:101C900002EB050C04EBCC0CDCF83C101944CCF83E
:101CA0003C10DCF844201344CCF84430013505EBFB
:101CB000850504EBC50101F048FED5E630F8253076
:101CC00023F070031B051B0D43F0800320F8253023
:101CD00005EB850304EBC30393F87431002B44D167
:101CE0002068B0F8503005EB850204EBC20292F890
:101CF0006821063303EBC20300EB4303B3F800A4EF
:101D0000CAF3090ABAF1000F23D105EB850304EBEE
:101D1000C303D3F884215244C3F88421D3F87C212F
:101D20005244C3F87C21D3F8803143B105EB8503DD
:101D300004EBC303D3F878319A4580F0278105EB93
:101D4000850304EBC30393F86811204603F02AFAD5
:101D500062E705EB850104EBC1015346B1F86E2142
:101D6000D1F87C1102F00BF9CFE705EB850304EB0A
:101D7000C30393F86B31022B36D005EB850204EBDD
:101D8000C20292F86801216831F820309BB223F436
:101D9000E04323F0700343F4004343F0C00321F811
:101DA0002030206892F8682130F8223013F4804FF8
:101DB00000F0D180B0F85030023303EBC20300EBE7
:101DC0004303B3F800A4CAF3090ABAF1000F9CD088
:101DD00005EB850104EBC1015346B1F87021D1F840
:101DE0007C1102F0CCF890E719F4804F59D02168AB
:101DF000B1F8503005EB850204EBC20292F868019D
:101E0000023303EBC00301EB4303B3F800A4CAF3AE
:101E1000090AD2F88031534530D3A3EB0A0305EB0E
:101E2000850204EBC202C2F880316BB319F0400F97
:101E300013D005EB850304EBC30393F86811226804
:101E400032F821309BB223F4E04323F0700343F4D3
:101E5000004343F0C00322F82130BAF1000F3FF4F1
:101E600054AF05EB850104EBC1015346B1F8702175
:101E7000D1F87C11206802F082F846E705EB850373
:101E800004EBC303C3F8806131F820309BB223F424
:101E9000804323F0700383F400533B4321F8203048
:101EA000C4E72168B1F8503005EB850204EBC202AB
:101EB00092F86801063303EBC00301EB4303B3F868
:101EC00000A4CAF3090AD2F88031534530D3A3EBFA
:101ED0000A0305EB850204EBC202C2F880316BB342
:101EE00019F0400F13D105EB850304EBC30393F8FE
:101EF0006811226832F821309BB223F4E04323F0CA
:101F0000700343F4004343F0C00322F82130BAF1D8
:101F1000000F3FF4FAAE05EB850104EBC101534617
:101F2000B1F87221D1F87C11206802F028F8ECE6B3
:101F300005EB850304EBC303C3F8806131F820305F
:101F40009BB223F4804323F0700383F400533B439C
:101F500021F82030C4E7B0F85030063303EBC20359
:101F600000EB4303B3F800A4CAF3090ABAF1000F67
:101F70003FF4CBAE05EB850104EBC1015346B1F84C
:101F80007221D1F87C1101F0FAFFBEE605EB850164
:101F900004EBC10101F5B471206801F0D6FC3BE609
:101FA00019F4807F3FF454AE19F0400F00F0D38055
:101FB0002268B2F850309AF8281005EB850004EB3F
:101FC000C000006C023303EBC10302EB4303B3F820
:101FD00000C4CCF3090C604538D9A0EB0C0005EB2C
:101FE000850304EBC3031864A8B319F4804F0AD027
:101FF00032F821309BB223F4E04323F0700348EA27
:10200000030322F8213005EB850304EBC30393F8A7
:102010004C30012B34D09AF82810226832F8213045
:102020009BB223F4E04323F0400383F030033B43AF
:1020300022F8213018E505EB850504EBC5052E6473
:102040009AF82810204603F0B9F80DE505EB850550
:1020500004EBC5031E64204603F0B0F819F4804F6A
:10206000D9D09AF82810226832F821309BB223F494
:10207000E04323F0700348EA030322F82130CAE763
:1020800005EB850304EBC303DA6B6244DA635A6C35
:1020900062445A64996C9B6B99422BD305EB850281
:1020A00004EBC202C91A91649AF82920002A37D198
:1020B0002268B2F850109AF82800000102F2044297
:1020C00011444218002B40F05281425A22F4F84247
:1020D0001204120C4252425A42F400424252AA00E6
:1020E000501904EBC0009BB2028EC16B206801F056
:1020F00015FC90E739B905EB850304EBC30383F8BE
:102100004C606346D0E705EB850304EBC30383F81B
:102110004C609E649AF82920002A00F01D810B462D
:10212000012ADCD12268B2F850009AF8281009017F
:1021300002F20442024498B28852D0E7590913F0DF
:102140001F0F08BF01F1FF316FEAC1616FEA514112
:1021500089B21180C3E72268B2F850309AF828108B
:1021600005EB850004EBC000006C063303EBC103F4
:1021700002EB4303B3F800C4CCF3090C604551D320
:10218000A0EB0C0005EB850304EBC30318640028E7
:102190004DD019F4804F0AD132F821309BB223F48C
:1021A000E04323F0700348EA030322F8213005EBF3
:1021B000850304EBC30393F84C30012B7FF42BAF62
:1021C00005EB850304EBC303DA6B6244DA635A6CF4
:1021D00062445A64996C9B6B99423ED305EB85022D
:1021E00004EBC202C91A9164226810469AF829C009
:1021F000BCF1000F49D1B2F8501002F20C420A446F
:102200009AF8281009015018002B40F0C680505A47
:1022100020F4F8400004000C5052505A40F40040A2
:10222000505235E005EB850504EBC5031E642046DE
:1022300002F0C4FF19F4804F7FF4EDAE9AF8281035
:10224000226832F821309BB223F4E04323F070037C
:1022500048EA030322F82130DDE639B905EB8503AE
:1022600004EBC30383F84C606346BDE705EB8503CD
:1022700004EBC3039E6483F84C60226810469AF80E
:1022800029C0BCF1000F7ED00B46BCF1010F17D066
:10229000AA00501904EBC0009BB2428EC16B2068AB
:1022A00001F03CFBB7E65A0913F01F0F08BF02F11B
:1022B000FF326FEAC2626FEA524292B20280E7E7EF
:1022C000B2F8501089B29AF8282000EB021202F2FC
:1022D0000C4298B25052DBE72268B2F8443023F443
:1022E00080631B041B0CA2F84430204602F077FFE9
:1022F00000212046FFF7FDFAFFF721BB2268B2F864
:10230000403023F004031B041B0CA2F84030226869
:10231000B2F8403023F008031B041B0CA2F8403035
:10232000204602F07DFF2268B2F8443023F4805347
:102330001B041B0CA2F84430FFF726BB2268B2F83E
:10234000443023F400731B041B0CA2F844302046D5
:1023500002F03FFFFFF771BB2268B2F8500002F2B3
:10236000044202449AF8283002EB03120B463E2B3B
:102370003FF6E4AE590813F0010F18BF013189028E
:1023800089B21180ABE6B2F8500002F20C4303446C
:102390009AF8280003EB00100B463E2B83D85A080E
:1023A00013F0010F18BF0132920292B202806FE760
:1023B000F8B511F0800F29D101F00707BE00F4191C
:1023C00000EBC40404F5B4743E4400EBC6060025DB
:1023D00086F8695101F0070121702261E37062788B
:1023E00002B1E181022B04BF0023237190F8A832CF
:1023F000012B15D00546012380F8A832214600683C
:1024000000F0A2FF002085F8A802F8BD01F0070542
:102410006E1CB500AC1900EBC40401266670D9E748
:102420000220F2E710B511F0800F20D101F007046F
:10243000A3001A1900EBC20202F5B472234400EBA8
:10244000C303002483F8694101F00703137090F877
:10245000A832012B15D00446012380F8A83211467A
:10246000006801F0ECF8002084F8A80210BD01F02B
:1024700007035C1CA3001A1900EBC202012454706C
:10248000E2E70220F2E770B501F00705AC00611940
:1024900000EBC10101F5B471661900EBC606C6F880
:1024A0007C21C6F880310023C6F8843186F8693172
:1024B00086F86851006801F048FA002070BD01F00C
:1024C000070101EB810100EBC101D1F884017047E4
:1024D00070B501F00706741C04EB840400EBC40122
:1024E000B400A51900EBC505EA632B64012285F849
:1024F0004C20AB6400236B6485F8292085F82860A4
:10250000006801F022FA002070BD38B501F007051F
:1025100043689D4230D811F0800F1FD18A005318B4
:1025200000EBC30303F5B473114400EBC1010022B7
:1025300081F8692101229A701D7090F8A822012A61
:102540001CD00446012280F8A8221946006801F038
:1025500060F95DB1002084F8A8020EE06C1CA200B6
:10256000131900EBC30301215970E3E704F52C7143
:10257000206801F0D1F9EDE7012038BD0220FCE729
:1025800001F00F0243689A4230D810B511F0800F65
:1025900022D101F00704A3001A1900EBC20202F5D0
:1025A000B472234400EBC303002483F86941002381
:1025B000937001F00703137090F8A832012B17D025
:1025C0000446012380F8A8321146006801F046F95C
:1025D000002084F8A80210BD01F007035C1CA300D2
:1025E0001A1900EBC20201245470E0E70120704781
:1025F0000220F0E711F0800F0ED001F00701013149
:1026000001EB810100EBC1016AB101220A730B8168
:102610001B0C4B810020704701EB810100EBC101D5
:1026200001F5B471F0E70A73CB80F3E7002800F0FE
:1026300006822DE9F04182B00446036813F0010FD1
:102640002CD0AB4B5B6803F00C03042B1DD0A84BC4
:102650005B6803F00C03082B12D06368B3F5803F6E
:1026600041D0002B55D103F1804303F504331A68A0
:1026700022F480321A601A6822F480221A6037E04D
:102680009B4B5B6813F4803FE7D0994B1B6813F4B6
:10269000003F03D06368002B00F0D381236813F060
:1026A000020F76D0924B5B6813F00C0F5FD0904B0B
:1026B0005B6803F00C03082B54D02369002B00F057
:1026C0008A808C4B01221A60FEF7FAFE0646884D7E
:1026D0002B6813F0020F75D1FEF7F2FE801B022863
:1026E000F6D90320B0E1824A136843F480331360C3
:1026F000636843B3FEF7E4FE06467D4D2B6813F492
:10270000003FCBD1FEF7DCFE801B6428F6D9032006
:102710009AE1B3F5A02F09D0754B1A6822F48032E4
:102720001A601A6822F480221A60E1E703F18043FC
:10273000A3F53C331A6842F480221A601A6842F406
:1027400080321A60D4E7FEF7BBFE0646684D2B6860
:1027500013F4003FA2D0FEF7B3FE801B6428F6D925
:10276000032071E1624B5B6813F4803FA5D1604B9D
:102770001B6813F0020F04D02369012B01D0012044
:1027800062E15B4A1368616923F0F80343EAC1031D
:102790001360236813F0080F3CD0A369002B65D0A9
:1027A000554B01221A60FEF78BFE0646504D6B6AB0
:1027B00013F0020F21D1FEF783FE801B0228F6D909
:1027C000032041E14A4A1368616923F0F80343EAB0
:1027D000C1031360DDE7474B00221A60FEF770FE6D
:1027E0000646434D2B6813F0020FD2D0FEF768FE69
:1027F000801B0228F6D9032026E1404B1B68404A83
:10280000A2FB03235B0A019300BF019B5A1E0192A6
:10281000002BF9D1236813F0040F00F09E80344B95
:10282000DB6913F0805F33D1314BDA6942F08052BB
:10283000DA61DB6903F080530093009B0125314B83
:102840001B6813F4807F25D0E368012B36D0002B62
:102850005AD103F1804303F504331A6A22F00102CE
:102860001A621A6A22F004021A622CE0224B002239
:102870001A60FEF725FE06461D4D6B6A13F0020F27
:10288000C8D0FEF71DFE801B0228F6D90320DBE02E
:102890000025D4E71B4A136843F480731360FEF7E6
:1028A0000FFE0746174E336813F4807FCCD1FEF736
:1028B00007FEC01B6428F6D90320C5E00C4A136A42
:1028C00043F001031362E368002B33D0FEF7F8FDF9
:1028D0008046074E41F28837336A13F0020F3BD12E
:1028E000FEF7EEFDA0EB0800B842F5D90320ABE0FF
:1028F0000010024000004242800442420C000020CE
:10290000D34D621000700040052B09D0514B1A6A5C
:1029100022F001021A621A6A22F004021A62D2E755
:102920004C4B1A6A42F004021A621A6A42F001021F
:102930001A62C8E7FEF7C4FD8046464E41F288376A
:10294000336A13F0020F07D0FEF7BAFDA0EB0800C0
:10295000B842F5D9032077E0E5B9E369002B72D0DE
:102960003C4A526802F00C02082A56D0022B17D0BB
:10297000394B00221A60FEF7A3FD0546354C23684B
:1029800013F0007F47D0FEF79BFD401B0228F6D9CD
:10299000032059E02F4AD36923F08053D361DCE749
:1029A0002D4B00221A60FEF78BFD0646294D2B6841
:1029B00013F0007F06D0FEF783FD801B0228F6D9B6
:1029C000032041E0236AB3F5803F1AD021494A68C9
:1029D000236A606A034322F4741213434B601E4B54
:1029E00001221A60FEF76CFD05461A4C236813F0AD
:1029F000007F0ED1FEF764FD401B0228F6D90320AC
:102A000022E0144A536823F40033A1680B43536057
:102A1000DCE7002018E0002016E0012B17D00D4B5A
:102A20005B6803F48031226A914201D001200BE0FF
:102A300003F47013606A181A18BF012004E0012023
:102A40007047012000E0002002B0BDE8F0810120C5
:102A5000FAE700BF001002406000424286B0174B08
:102A60000FCB0DF1180C0CE90F0001238DF8043089
:102A700002238DF80530124B5B6803F00C02082A24
:102A800019D1C3F38342624412F8102C13F4803F2F
:102A900004D10C4800FB02F006B07047084B5B689D
:102AA000094800FB02F0C3F34043634413F8143CAD
:102AB000B0FBF3F0F0E70448EEE700BFA0540008D5
:102AC0000010024000093D0000127A00002800F0CA
:102AD000A6802DE9F0410446534B1B6803F0070321
:102AE0008B420DD2504A136823F007030B43136047
:102AF000136803F007038B4202D00120BDE8F08188
:102B0000236813F0020F17D013F0040F04D0474AC4
:102B1000536843F4E0635360236813F0080F04D054
:102B2000424A536843F460535360404A536823F069
:102B3000F003A068034353600D46236813F0010FB0
:102B400032D06268012A21D0022A26D0374B1B6876
:102B500013F0020F65D035494B6823F0030313438C
:102B60004B60FEF7ADFC8046304E41F2883773680B
:102B700003F00C036268B3EB820F15D0FEF7A0FCE4
:102B8000A0EB0800B842F2D90320B7E7274B1B6837
:102B900013F4003FDFD10120B0E7244B1B6813F092
:102BA000007FD8D10120A9E71F4B1B6803F0070362
:102BB000AB420CD91C4A136823F007032B43136064
:102BC000136803F00703AB4201D0012096E72368A6
:102BD00013F0040F06D0154A536823F4E063E1684C
:102BE0000B435360236813F0080F07D00F4A536854
:102BF000216923F4605343EAC1035360FFF72EFFBA
:102C00000A4B5B68C3F30313094AD35CD840094BF2
:102C10001860094B1868FEF70FFC00206EE70120D2
:102C2000704701206AE700BF002002400010024008
:102C3000BC5400080C000020140000202DE9F041D5
:102C400082B00446036813F0010F34D0404BDB69B7
:102C500013F0805F49D13E4BDA6942F08052DA616D
:102C6000DB6903F080530193019B0125394B1B68FD
:102C700013F4807F3BD0364B1B6A13F4407311D0A2
:102C8000626802F440729A420CD0314A136A23F40B
:102C90004070314901260E6000260E60106213F06C
:102CA000010F38D12A4A136A23F4407361680B4339
:102CB0001362002D44D1236813F0020F06D0244A7A
:102CC000536823F44043A1680B435360236813F017
:102CD000100F3AD01E4A536823F48003E1680B4377
:102CE0005360002002B0BDE8F0810025BEE7194A1C
:102CF000136843F480731360FEF7E2FB0746154E3A
:102D0000336813F4807FB6D1FEF7DAFBC01B64286A
:102D1000F6D90320E6E7FEF7D3FB804606F18046AE
:102D200006F5043641F28837336A13F0020FB9D141
:102D3000FEF7C6FBA0EB0800B842F5D90320D1E7A7
:102D4000D36923F08053D361B5E70020CAE700BF01
:102D50000010024000700040400442422DE9F04360
:102D600083B080460E4615461C46FEF7A9FB0A9F17
:102D700027443F1AFEF7A4FB81462D4B1B68C3F383
:102D8000CB3307FB03F30193D8F80020936836EAAE
:102D900003030CBF01230023AB4245D0B4F1FF3F36
:102DA000F4D0FEF78DFBA0EB0900B84208D23FB18A
:102DB000019B002B08BF0027019B013B0193E3E728
:102DC000D8F80020536823F0E0035360D8F80430AB
:102DD000B3F5827F0CD0D8F82830B3F5005F16D059
:102DE000012388F85130002388F8503003201CE07C
:102DF000D8F80830B3F5004F02D0B3F5806FEAD1B0
:102E0000D8F80020136823F040031360E3E7D8F8F4
:102E10000020136823F400531360D8F800201368CF
:102E200043F400531360DBE7002003B0BDE8F083F8
:102E30000C00002010B582B0044600920B46002220
:102E40008021FFF78BFF034610B9184602B010BD72
:102E5000636D43F0200363650323F6E7002856D033
:102E600010B50446436A33B94368B3F5827F05D091
:102E70000023C36102E00023036143610023A362D6
:102E800094F85130002B3CD0022384F85130226852
:102E9000136823F0400313602268636803F48273AD
:102EA000A16801F404410B43E16801F400610B43A4
:102EB000216901F002010B43616901F001010B433B
:102EC000A16901F400710B43E16901F038010B4382
:102ED000216A01F080010B43A16A01F400510B4308
:102EE00013602268638B03F0040353602268D36984
:102EF00023F40063D36100206065012384F851301E
:102F000010BD84F850302046FDF7BEFFBCE701201D
:102F100070472DE9F04182B090F85040012C00F04C
:102F2000C7801D46174688460446012380F8503066
:102F3000FEF7C6FA064694F85130DBB2012B09D0F1
:102F40000220012384F85130002384F8503002B06D
:102F5000BDE8F081B8F1000F00F0A280002F00F072
:102F6000A180032384F8513000236365C4F83080C6
:102F7000A786E786A363A387E38763642364A368C4
:102F8000B3F5004F1CD023681A6812F0400F03D12C
:102F90001A6842F040021A60E368B3F5006F1AD075
:102FA00063680BB1012F4ED12368226B12781A731C
:102FB000236B01332363E38E013B9BB2E38642E044
:102FC0002268136823F0400313602268136843F4F7
:102FD00080431360D7E763680BB1012F13D12368D7
:102FE000226B1288DA60236B02332363E38E013B8A
:102FF0009BB2E38607E0FEF763FA801BA84216D374
:10300000B5F1FF3F50D1E38E9BB2002B32D0236845
:103010009A6812F0020FEED0226B1288DA60236BEE
:1030200002332363E38E013B9BB2E386EBE7002D83
:10303000E9D1032085E7FEF743FA801BA84215D3A8
:10304000B5F1FF3F32D1E38E9BB29BB123689A6802
:1030500012F0020FEFD0226B12781A73236B013338
:103060002363E38E013B9BB2E386ECE7002DEAD1BC
:10307000032066E7324629462046FFF7DBFE08B10B
:1030800020236365A36833B901932368DA6801924A
:103090009B680193019B606D003018BF012050E7D1
:1030A00001204EE701204CE703204AE7032048E7D0
:1030B00002204CE72DE9F04383B0DDF8288090F83A
:1030C0005040012C00F00F811D4617460E46044665
:1030D000012380F85030FEF7F3F9814694F851004F
:1030E000C0B2012816D06368B3F5827F0AD00223EC
:1030F000012284F85120002284F85020184603B0A1
:10310000BDE8F083A368002B40F0E180042801D0E3
:103110000223EDE7002E00F0DC80002F00F0DB80C2
:10312000002D00F0DA8094F85130DBB2042B1CBF84
:10313000052384F8513000236365A763E587A587DD
:103140002663E586A5862364636423681A6812F003
:10315000400F03D11A6842F040021A60E368B3F5E9
:10316000006F12D063680BB1012D0AD12368226B66
:1031700012781A73236B01332363E38E013B9BB2F6
:10318000E386012500272E4668E063680BB1012D18
:103190000AD12368226B1288DA60236B023323631F
:1031A000E38E013B9BB2E386012500272E461BE000
:1031B00023689A6812F0010F0DD0E28F92B252B1DB
:1031C000DA68A36B1A80A36B0233A363E38F013B1E
:1031D0009BB2E3873546FEF773F9A0EB0900404543
:1031E00002D3B8F1FF3F7AD1E38E9BB21BB9E38FD4
:1031F0009BB2002B54D023689A6812F0020FD7D0EC
:10320000E28E92B2002AD3D0002DD1D0226B128848
:10321000DA60236B02332363E38E013B9BB2E386C8
:103220003D46C5E723689A6812F0010F0DD0E28F82
:1032300092B252B1DA68A36B1A70A36B0133A36325
:10324000E38F013B9BB2E3873546FEF739F9A0EBEC
:10325000090040451FD3B8F1FF3F42D1E38E9BB236
:1032600013B9E38F9BB2DBB123689A6812F0020FA7
:10327000D8D0E28E92B2002AD4D0012DD2D1226BC6
:1032800012781A73236B01332363E38E013B9BB2E5
:10329000E3863D46C6E7B8F1000FDFD1032327E7F9
:1032A0004A4641462046FFF7C5FD034618B1202394
:1032B000636501231CE7A268002A7FF419AF01921D
:1032C0002268D168019192680192019A10E7022365
:1032D0000EE701230CE701230AE7012308E7032394
:1032E00006E7032304E7022308E784B001A880E887
:1032F0000E00002004B070470023A0F844304FF4C3
:103300003F42A0F8402018467047B0F8403023F400
:103310007C535B045B0CA0F8403000207047002019
:10332000704784B010B402AC84E80E000123A0F80A
:1033300040300023A0F84030A0F84430A0F85030CE
:10334000184610BC04B0704770B403460D7830F8CE
:10335000252092B222F4EC4222F0700292B2C87898
:1033600003285CD8DFE800F04F570253002048F2F2
:103370008004224323F825200D7833F8252092B2CB
:1033800022F4E04222F070022C43224323F825204D
:103390000A7B002A40F0A1804A78002A41D0B3F885
:1033A0005050ADB20A7803EB021202F58062CC886D
:1033B0006408640054530C7833F8242012F0400F52
:1033C0000CD033F8242092B222F4E04222F07002B2
:1033D00042F4004242F0C00223F82420CA78012AB5
:1033E000097833F8212092B222F4E04222F0400220
:1033F00018BF82F0200242F4004242F0800223F81B
:10340000212070BC704742F400720020AFE742F404
:10341000C0620020ABE742F480620020A7E70120F1
:10342000A5E7B3F85050ADB20A7803EB021202F5EB
:103430008162CC88640864005453B3F85050ADB234
:103440000A7803EB021202F20C420C696CBB545B6B
:1034500024F4F8442404240C5453545B44F40044EE
:1034600054530C7833F8242012F4804F0CD033F8E6
:10347000242092B222F4E04222F0700242F4404250
:1034800042F0800223F82420097833F8212092B2F8
:1034900022F4804222F0700282F4405242F4004250
:1034A00042F0800223F82120ABE73E2C08D86608C2
:1034B00014F0010F18BF0136B602B6B25653D0E76A
:1034C000660914F01F0F08BF06F1FF366FEAC664E5
:1034D0006FEA5444A4B25453C3E70C7833F8242061
:1034E00092B222F4E04222F0700242F4014242F031
:1034F000800223F82420B3F85050ADB20A7803EBD1
:10350000021202F580620C89640864005453B3F817
:103510005050ADB20A7803EB021202F581624C8979
:103520006408640054534A78002A40D10C7833F878
:10353000242012F4804F0CD033F8242092B222F4CD
:10354000E04222F0700242F4404242F0800223F84E
:1035500024200C7833F8242012F0400F0CD033F8DC
:10356000242092B222F4E04222F0700242F400429F
:1035700042F0C00223F824200D7833F8252092B2BF
:1035800022F4804222F0700282F4405248F2800419
:10359000224323F82520097833F8212092B222F41F
:1035A000E04222F04002224323F8212029E70C7850
:1035B00033F8242012F4804F0CD033F8242092B238
:1035C00022F4E04222F0700242F4404242F08002D3
:1035D00023F824200C7833F8242012F0400F0CD06C
:1035E00033F8242092B222F4E04222F0700242F436
:1035F000004242F0C00223F82420CA78012A0C7845
:1036000033F8242092B222F4E04222F0400218BFA4
:1036100082F0200242F4004242F0800223F824208B
:10362000097833F8212092B222F4804222F070020D
:1036300042F4004242F0800223F82120E1E60B7BB5
:10364000002B46D14B7813B30A7830F8223013F0B0
:10365000400F0CD030F822309BB223F4E04323F02B
:10366000700343F4004343F0C00320F822300A788B
:1036700030F822309BB223F4E04323F0400343F4BC
:10368000004343F0800320F82230002070470A787E
:1036900030F8223013F4804F0CD030F822309BB237
:1036A00023F4E04323F0700343F4404343F08003EA
:1036B00020F822300A7830F822309BB223F480437D
:1036C00023F0700343F4004343F0800320F82230DA
:1036D000DBE710B44B78002B4ED10A7830F822305B
:1036E00013F4804F0CD030F822309BB223F4E04327
:1036F00023F0700343F4404343F0800320F822306A
:103700000A7830F8223013F0400F0CD030F8223015
:103710009BB223F4E04323F0700343F4004343F0EF
:10372000C00320F822300A7830F822309BB223F40C
:10373000E04323F0700343F4004343F0C00320F858
:1037400022300C7830F824309BB223F4804323F0ED
:10375000700348F28002134320F82430097830F8CF
:1037600021309BB223F4E04323F04003134320F8BD
:103770002130002010BC70470A7830F8223013F452
:10378000804F0CD030F822309BB223F4E04323F07A
:10379000700343F4404343F0800320F822300A785A
:1037A00030F8223013F0400F0CD030F822309BB2AA
:1037B00023F4E04323F0700343F4004343F0C003D9
:1037C00020F822300A7830F822309BB223F4E0430C
:1037D00023F0700343F4404343F0800320F8223089
:1037E0000C7830F824309BB223F4E04323F04003FC
:1037F00048F28002134320F82430097830F8213051
:103800009BB223F4804323F07003134320F821304C
:10381000AFE74B788BB90A7830F822309BB223F4AB
:10382000804323F0700383F4805343F4004343F058
:10383000800320F82230002070470A7830F82230C8
:103840009BB223F4E04323F0400383F0100343F4DE
:10385000004343F0800320F82230ECE70B7B002B81
:103860004BD14B7833B30A7830F8223013F0400F45
:103870000CD030F822309BB223F4E04323F07003E5
:1038800043F4004343F0C00320F82230CB78012BEF
:1038900033D00A7830F822309BB223F4E04323F08F
:1038A000400383F0200343F4004343F0800320F8F7
:1038B000223022E00A7830F8223013F4804F0CD006
:1038C00030F822309BB223F4E04323F0700343F43A
:1038D000404343F0800320F822300A7830F8223049
:1038E0009BB223F4804323F0700383F4405343F4EA
:1038F000004343F0800320F822300020704711B9C4
:103900008023A0F84C300020704700207047002032
:103910007047B0F84400704700207047013300EB57
:1039200042025B0810D010B402F58062023111F837
:10393000010C11F8024C44EA002422F8044B023135
:10394000013BF4D110BC70477047F8B54B78012BA0
:1039500030D00A7B002A40F008828B690A699342C2
:1039600040F2E7819B1A8B61B0F850300D782D0141
:1039700000F20C442344002A40F0DF81EA5A22F48A
:10398000F8421204120CEA52EA5A42F40042EA5295
:103990000A7830F822309BB223F4804323F070037E
:1039A00083F4405343F4004343F0800320F8223073
:1039B0000020F8BD0C4605460A698E69964228BF6C
:1039C00016460B7B53B3CB78022B47D00B7830F8DD
:1039D000232012F0400F00F09081B0F8501000F258
:1039E0000C420A441B01B1B2D1526289B3B261697F
:1039F0002846FFF793FF6378002B40F088812278F8
:103A000035F822309BB223F4E04323F0700343F4F3
:103A1000004343F0C00325F822300DE0B6B2334630
:103A2000CA884969FFF77AFFB5F850102278120169
:103A300005F204430B44D652227835F822309BB26B
:103A400023F4E04323F0400383F0300343F40043C6
:103A500043F0800325F822300020AAE70B6A9A423F
:103A600080F02E810A7830F822309BB223F4E043B4
:103A700023F0700343F4014343F0800320F8223025
:103A80000B6A9B1B0B620B7830F8232012F0400F5F
:103A900000F08B804A784ABBB0F8502000F20C410D
:103AA0000A441B0156B9D15A21F4F8410904090C02
:103AB000D152D15A41F40041D15219E03E2E08D8DA
:103AC000710816F0010F18BF0131890289B2D15275
:103AD0000EE0710916F01F0F08BF01F1FF316FEA08
:103AE000C1616FEA514189B2D15201E0012A24D06B
:103AF000B3B2628961692846FFF710FF63693344F6
:103B00006361236A2269934220D99B1B23626378F5
:103B1000002B37D1B5F850302178090105F2044265
:103B20001344BEB9CA5A22F4F8421204120CCA5203
:103B3000CA5A42F40042CA5226E0B0F8501000F2CD
:103B40000C420A441B01B1B2D152D1E700222262D9
:103B50001E46DCE73E2E08D8720816F0010F18BF8B
:103B60000132920292B2CA520EE0720916F01F0F91
:103B700008BF02F1FF326FEAC2626FEA524292B2AC
:103B8000CA5201E0012B06D0B3B2228961692846EE
:103B9000FFF7C4FE50E7B5F850102278120105F285
:103BA00004430B44B1B2D152EEE74A784ABBB0F8B5
:103BB000502000F204410A441B0156B9D15A21F4A5
:103BC000F8410904090CD152D15A41F40041D152B3
:103BD00019E03E2E08D8710816F0010F18BF013108
:103BE000890289B2D1520EE0710916F01F0F08BF89
:103BF00001F1FF316FEAC1616FEA514189B2D152DF
:103C000001E0012A24D0B3B2228961692846FFF776
:103C100085FE636933446361236A2269934220D934
:103C20009B1B23626378002B37D1B5F85030217885
:103C3000090105F20C421344BEB9CA5A22F4F842F3
:103C40001204120CCA52CA5A42F40042CA5226E066
:103C5000B0F8501000F204420A441B01B1B2D15234
:103C6000D1E7002222621E46DCE73E2E08D8720809
:103C700016F0010F18BF0132920292B2CA520EE042
:103C8000720916F01F0F08BF02F1FF326FEAC2621D
:103C90006FEA524292B2CA5201E0012B06D0B3B28F
:103CA000628961692846FFF739FEC5E6B5F850100C
:103CB0002278120105F20C430B44B1B2D152EEE767
:103CC000097830F8212092B222F4E24222F0700208
:103CD00042F4004242F0800220F82120B0F8500067
:103CE0002178090105F2044202449BB28B522289D9
:103CF00061692846FFF712FE9EE6B0F8501000F208
:103D000004420A441B01B1B2D15222896EE6012B52
:103D10007FF492AE227835F822309BB223F4E04350
:103D200023F0700343F4404343F0800325F822302E
:103D300082E600228A611A4616E63E2A08D854080E
:103D400012F0010F18BF0134A402A4B2EC521FE616
:103D5000540912F01F0F08BF04F1FF346FEAC46466
:103D60006FEA5444A4B2EC5212E6CA78022A04D094
:103D7000012A00F0878001201BE653BBB0F85030C9
:103D80000D782D0100F2044213440A69002A3DD146
:103D9000EA5A22F4F8421204120CEA52EA5A42F4A5
:103DA0000042EA524B78002B60D1B0F850300A78CC
:103DB000120100F20C4423440C69002C3ED1D45A69
:103DC00024F4F8442404240CD452D45A44F4004477
:103DD000D452CB69002B3FF4DBAD0A7830F82230A7
:103DE00044F240042340A34202D0002B7FF4D0AD24
:103DF00030F822309BB223F4E04323F0700343F405
:103E0000004343F0C00320F82230C1E53E2A08D821
:103E1000540812F0010F18BF0134A20292B2EA5204
:103E2000C0E7540912F01F0F08BF04F1FF346FEA16
:103E3000C4626FEA524292B2EA52B3E73E2C08D80B
:103E4000650814F0010F18BF0135AC02A4B2D452BA
:103E5000BFE7650914F01F0F08BF05F1FF356FEAD2
:103E6000C5646FEA5444A4B2D452B2E7012BB0D176
:103E7000B0F850400A78120100F20C4323440C8A37
:103E8000D452A6E78C690A6994422BD9A41A8C6192
:103E9000002B7FF47DADB0F850300D782D0100F28D
:103EA00004441C4412BB2B5B23F4F8431B041B0C7F
:103EB0002B532B5B43F400432B534C78002C3DD108
:103EC000B0F850300C78240100F20C421A44A35A86
:103ED00023F4F8431B041B0CA352A35A43F40043DE
:103EE000A35255E500228A612246D1E73E2A16D820
:103EF000530812F0010714BF5E1C1E46B602B6B28C
:103F00002E534C78D4B9B0F8504000F20C42224401
:103F10000C782401FFB99B029BB2135338E5530977
:103F200012F01F070CBF03F1FF361E466FEAC6668C
:103F30006FEA5646B6B22E534C7884B1012C7FF40A
:103F400027ADB0F850300C7803F20C4303EB0413A8
:103F500092B2C2521CE50133DDE7013B08E0B0F844
:103F6000504000F20C4222440C782401002FF4D07F
:103F70006FEAC3636FEA53439BB2135308E500EB48
:103F8000420202F58062580819D0F0B48D1C174621
:103F9000064637F8044BA4B205F8024C240A05F88B
:103FA000014C0235013EF4D101EB400102EB8002ED
:103FB00013F0010F1CBF13880B70F0BC704713F097
:103FC000010F1CBF13880B707047000008B500225A
:103FD00080210248FDF7ECFB08BD00BF000C01404A
:103FE00010B582B002AC04F8010D00224FF48071CC
:103FF0000548FDF7DDFB4FF0FF3301222146034862
:10400000FEF787FF02B010BD000C0140BC08002085
:1040100038B504460D4601224FF480710548FDF77E
:10402000C7FB4FF0FF33AAB221460348FEF771FFEA
:1040300038BD00BF000C0140BC080020F8B5461C8C
:10404000057806E039462046FFF7E2FF3C440DE0E4
:104050002646013DEDB2FF2D15D0344614F8020B73
:10406000FFF7BEFF767816F07F07EBD116F0800FD2
:10407000EED0661C2078FF2808BF4FF4FA70FDF7D9
:1040800025FA3446E4E7F8BDF0B583B007460D469F
:1040900016461C462A20FFF7A3FF00238DF80430A4
:1040A00002378DF805708DF8063002368DF80760FE
:1040B00004210DEB0100FFF7ABFF2B20FFF790FF72
:1040C00003358DF8055003348DF8074004210DEBBE
:1040D0000100FFF79DFF2C20FFF782FF03B0F0BD2A
:1040E00008B5012280210248FDF762FB08BD00BF30
:1040F000000C014010B5FFF769FF0E4C00224FF491
:1041000000712046FDF754FB0520FDF7DFF9012281
:104110004FF400712046FDF74BFB0748FFF78EFF79
:104120000648FFF78BFF0648FFF788FFFFF7D8FF29
:1041300010BD00BF000C0140505C00088C5C000802
:104140009C5C000882B02DE9F04F89B00290049188
:1041500014461393BDF854A0BDF858B0DAB20092DB
:10416000C3F307230593FFF731FF4FEA1B294FEAFB
:104170001A2603943FE0149C9DF808009DF8101047
:10418000059F7B1E0B44009A013A0244DBB2D2B277
:10419000FFF77AFF57B3203D07FB05F505F100480F
:1041A00008F1FF3804EB48083D44023C04EB4503AA
:1041B0000193009F38F8025F009BA3B1002405FA29
:1041C00004F313F4004F19BF8DF81C608DF81DA087
:1041D0008DF81C908DF81DB0022107A8FFF718FF7D
:1041E0000134BC42EBD1019B9845E3D1029B009A7C
:1041F00013449BB20293039B13F8015B0393A5B195
:10420000029B009A13447F2BB5DD049B059A13444F
:104210009BB2049313447F2B07DC202D02D0002394
:104220000293A8E700230293E5E7FFF759FF09B0DF
:10423000BDE8F04F02B070472DE9F04383B0BDF800
:1042400028707F2845D804460D4690461E467F2993
:104250003FD88318013B7F2BC4BFC0F180081FFAF1
:1042600088F88B19013B7F2BC4BFC1F18006B6B221
:10427000FFF7ACFEE0B2E9B24B1E3344421E4244AB
:10428000DBB2D2B2FFF700FF3B0A8DF804308DF8A5
:10429000057001224FF480710F48FDF789FAB6B11D
:1042A000C1460E4F0FE04C464FF0FF352B46022221
:1042B00001A93846FEF72DFE013CA4B2002CF5D131
:1042C000013EB6B21EB1B8F1000FECD1F8E7FFF72E
:1042D00007FF03B0BDE8F083000C0140BC080020DC
:1042E00000B583B0009080231A4600210846FFF7EE
:1042F000A3FF03B05DF804FB014B1880704700BFBB
:104300003C06002010B584B00C461146074B002235
:104310000292074A128801925A6800921B6802466C
:104320002046FFF70FFF04B010BD00BF18000020AB
:104330003C06002008B5192808D01D2805D10A46DA
:104340004FF480710548FDF733FA08BD0A464FF473
:1043500080510348FDF72CFAF7E700BF0008014041
:10436000000C0140800101D00138FDD17047D0F828
:10437000BC3283B110B5D0F8B84294F80002FF28DF
:1043800007D09B6894F8012221469847FF2384F8C0
:104390000032002010BD002070470000432303803E
:1043A00000487047580000204323038000487047AE
:1043B0009C0000204323038000487047EC0000204D
:1043C0000A23038000487047E000002038B5044607
:1043D000D0F8B85200F0C6FFC5F80C02D4F8B832D5
:1043E0004BB1D4F8BC32DB6805F50371D5F8040293
:1043F0009847002038BD0220FCE7D0F8B82212B35D
:1044000038B501EB810300EB8303DB695BB1D0F8C6
:10441000C04201EB810504EBC504A56BB3FBF5F4C9
:1044200005FB14331BB10020C2F8140238BD01EBA8
:10443000810300EB83030024DC612346224600F065
:1044400081FF2046F2E70220704770B582B0054632
:104450000C46D0F8B86200238DF80730ADF8043070
:104460000B7813F0600227D0202A56D1CA883AB9B7
:10447000D0F8BC329B6800224878984700204FE073
:1044800013F0800F0CD0D0F8BC329B6831466078B6
:104490009847E2883146284600F04CFD00203FE076
:1044A0004B7886F80032CB8886F80132CA883146CC
:1044B00000F055FD002033E04B780A2B14D00B2B75
:1044C00021D01BB100F047FA022029E090F89C327D
:1044D000032B05D1022201A900F02CFD00201FE0D2
:1044E00000F039FA02201BE090F89C32032B06D131
:1044F00001220DF1070100F01DFD002010E000F089
:104500002AFA02200CE090F89C32032B01D1002003
:1045100006E000F020FA022002E000F01CFA02207F
:1045200002B070BD38B50446812100F0D4FE0025EC
:10453000E5620121204600F0CEFEC4F86C518221D4
:10454000204600F0C8FE2564D4F8B8324BB1D4F848
:10455000BC325B689847D4F8B80200F00DFFC4F88D
:10456000B852002038BD38B50446037CA3BB4FF4D5
:1045700000730222812100F0A3FE0125E5624FF4C1
:10458000007302222946204600F09AFEC4F86C51BE
:10459000082303228221204600F092FE0123236497
:1045A0004FF4077000F0E4FE0546C4F8B80268B3A3
:1045B000D4F8BC321B6898470023C5F81432C5F8FC
:1045C0001832237CC3B14023D5F8042201212046B0
:1045D00000F0C0FE002038BD40230222812100F0FF
:1045E0006FFE0125E562402302222946204600F0A5
:1045F00067FEC4F86C51CBE74FF40073D5F8042282
:104600000121204600F0A6FE0020E4E70120E2E7B9
:1046100019B1C0F8BC120020704702207047D0F8D2
:10462000B832C3F80812C3F8102200207047D0F83F
:10463000B832C3F8041200207047D0F8B8229AB1FB
:1046400008B5037C3BB14023D2F80422012100F0DD
:1046500081FE002008BD4FF40073D2F8042201212E
:1046600000F078FE0020F5E70220704798B108B509
:104670000346D0F8B40210B10020C3F8B40209B167
:10468000C3F8B0121846012380F89C32027000F083
:10469000CDFD002008BD0220704719B1C0F8B4124A
:1046A000002070470220704708B500F001FE00208E
:1046B00008BD08B5D0F8B43233B11B68984700285C
:1046C00014BF0220002008BD0220FCE708B5D0F886
:1046D000B4325B689847002008BD38B5044600F541
:1046E0002A75284600F023F90123C4F89432B4F85F
:1046F000AE32C4F8983294F8A81201F01F03012BCF
:104700000ED03BB1022B10D001F08001204600F00A
:10471000EAFD03E02946204600F028F9002038BDD4
:104720002946204600F0DCFAF8E72946204600F04A
:1047300007FBF3E738B5044699BB1046D4F894322A
:10474000032B03D0052B23D0002036E0D4F86031B2
:10475000D4F8642193420CD99B1AC4F860319A4270
:104760008CBF9AB292B20146204600F007FC0020AE
:1047700023E0D4F8B4321B692BB194F89C22032AAD
:1047800001D120469847204600F000FC002014E0AC
:104790000025C4F894522946204600F0A4FD28467E
:1047A0000BE00A46D0F8B4329B693BB190F89C12FA
:1047B000032905D111469847002038BD0220FCE7A7
:1047C0000220FAE710B50446002953D11046D4F868
:1047D0009432022B0CD033F0040303D18021204605
:1047E00000F081FD94F8A032012B3FD000204DE075
:1047F000236A626A93421DD8E169B1FBF2F302FBBE
:1048000013132BB98A4203D8D4F8983299421FD394
:10481000D4F8B432DB682BB194F89C22032A01D17E
:10482000204698478021204600F05DFD204600F09C
:10483000B8FBD7E79A1A226292B20146204600F0EE
:1048400086FB00231A461946204600F083FDC9E77F
:1048500000221146204600F07AFB0021C4F898128D
:104860000B460A46204600F075FDBBE7002084F8A1
:10487000A0020BE00A46D0F8B4325B693BB190F875
:104880009C12032905D111469847002010BD022033
:10489000FCE70220FAE770B50446402300221146E7
:1048A00000F00EFD0125C4F858514026C4F864619B
:1048B000334600228021204600F002FDA561666299
:1048C00084F89C520023C4F894326360C4F8A43284
:1048D000D4F8B8322BB1D4F8B4325B68002120464A
:1048E0009847002070BD01740020704790F89C32FA
:1048F00080F89D32042380F89C320020704790F8A5
:104900009C32042B04BF90F89D3280F89C3200202A
:10491000704708B590F89C32032B01D0002008BDE9
:10492000D0F8B432DB69002BF8D09847F6E70B7863
:1049300003704B784370CA788B7803EB0223438073
:104940004A790B7903EB02238380CA798B7903EBD5
:104950000223C380704710B50446802100F0C3FCD9
:104960000021204600F0BFFC10BD000030B583B030
:1049700005460C460B7803F06003202B05D0402B36
:1049800003D05BB1FFF7E7FF05E0D5F8B4329B68D1
:10499000214628469847002003B030BD4B78092BAC
:1049A00000F29981DFE813F06001850197017C0135
:1049B0009701C9000A0097014101EF000023ADF8FB
:1049C00006304A88130A013B062B00F2A480DFE878
:1049D00003F004182CA2A2869300D0F8B0321B6812
:1049E0000DF10601007C9847BDF80620002A00F072
:1049F0009F80E388002B40F09280284600F0C6FAA2
:104A0000C9E7037C43B9D0F8B4329B6A0DF10600C4
:104A1000984702234370E7E7D0F8B432DB6A0DF120
:104A20000600984702234370DEE7D2B2052A52D827
:104A3000DFE802F003101D2A3744D0F8B0325B687B
:104A400023B10DF10601007C9847CDE72146FFF721
:104A500082FFA0E7D0F8B0329B6823B10DF10601C8
:104A6000007C9847C0E72146FFF775FF93E7D0F831
:104A7000B032DB6823B10DF10601007C9847B3E743
:104A80002146FFF768FF86E7D0F8B0321B6923B1F3
:104A90000DF10601007C9847A6E72146FFF75BFF72
:104AA00079E7D0F8B0325B6923B10DF10601007CE3
:104AB000984799E72146FFF74EFF6CE7D0F8B032F0
:104AC0009B6923B10DF10601007C98478CE72146D4
:104AD000FFF741FF5FE72146FFF73DFF5BE7037C00
:104AE00033B9D0F8B4325B6B0DF1060098477BE721
:104AF0002146FFF730FF4EE7037C43B9D0F8B432CC
:104B00001B6B0DF106009847072343706CE72146A5
:104B1000FFF721FF3FE72146FFF71DFF3BE79A42E2
:104B200028BF1A46ADF806200146284600F002FAD2
:104B3000E388002B7FF42FAF5FE78B88F3B9CB8836
:104B4000E3B94B887F2B19D890F89C22032A0ED00A
:104B500003F07F0480F89E42214600F0EBFB2846DC
:104B600000F014FA34B1022385F89C3213E7FFF702
:104B7000F2FE10E7012385F89C320CE72146284617
:104B8000FFF7E9FE07E78978544B197001290ED821
:104B900090F89C32022B0ED0032B21D02146FFF738
:104BA000DAFE4E4B19782846FFF790FDF3E62146D2
:104BB000FFF7D1FEEFE681B14160032380F89C321C
:104BC000FFF777FD022803D0284600F0DFF9E2E680
:104BD00021462846FFF7BFFEDDE600F0D7F9DAE60A
:104BE00089B1436899421DD0D9B2FFF76FFD3B4BA5
:104BF000197869602846FFF75CFD02280DD0284629
:104C000000F0C4F9C7E6022380F89C324160FFF748
:104C10005DFD284600F0BAF9BDE621462846FFF7BB
:104C20009AFEB8E600F0B2F9B5E6CB88012B0BD1BD
:104C300090F89C329BB1022B09D9032B0FD1012292
:104C4000011D00F077F9A6E6FFF785FEA3E6014611
:104C5000002341F8083F012200F06CF99BE6214651
:104C60002846FFF778FE96E690F89C32013B022B2F
:104C700013D8CB88022B0DD10123C360D0F8A43206
:104C80000BB10323C360022205F10C01284600F09A
:104C900051F980E6FFF75FFE7DE6FFF75CFE7AE6FE
:104CA0004B88012B7FF477AEC0F8A43200F06EF988
:104CB00071E690F89C32013B022B09D84B88012BFE
:104CC0007FF469AE0023C0F8A43200F05FF962E619
:104CD000FFF741FE5FE6FFF73EFE5CE63E06002082
:104CE00038B505460C460B7803F06003202B06D040
:104CF000402B04D01BB1FFF72EFE002038BD95F8E5
:104D00009C32013B022B16D82379012B0ED8D5F803
:104D1000B4329B68214628469847E388002BECD1A3
:104D20000028EAD1284600F031F9E6E72146284676
:104D3000FFF711FEE1E721462846FFF70CFEDCE70E
:104D400038B504460B7803F06003202B05D0402BC8
:104D500003D04BB1FFF7FFFD04E0D4F8B4329B68F9
:104D600020469847002038BD8A88D0B24B78012B66
:104D70002ED0002B55D0032B40F0B48094F89C32F9
:104D8000022B05D0032B13D02046FFF7E4FDE9E703
:104D900010F07F0F08D00146204600F0A4FA8021D1
:104DA000204600F0A0FADDE72046FFF7D4FDD9E762
:104DB0004B8823B910F07F0F01D0CB881BB1204660
:104DC00000F0E4F8CEE70146204600F08CFAF6E762
:104DD00094F89C32022B05D0032B13D02046FFF70A
:104DE000BAFDBFE710F07F0F08D00146204600F063
:104DF0007AFA8021204600F076FAB3E72046FFF7E2
:104E0000AAFDAFE74B88002BACD110F07F0F03D188
:104E1000204600F0BBF8A5E70146204600F06BFAFB
:104E2000F6E794F89C32022B05D0032B18D02046CD
:104E3000FFF791FD96E710F07F0F03D02046FFF7B4
:104E40008AFD8FE712F0800F14BF04F1140104F5FE
:104E5000AA7100230B600222204600F06BF881E764
:104E600012F0800F1BD100F00F0303EB830304EB60
:104E70008303D3F8583133B300F07F0303EB83038C
:104E800004EB830505F5AA7510F07F0F1FD10023F1
:104E90002B6002222946204600F04CF862E700F021
:104EA0000F0303EB830304EB83039B693BB100F027
:104EB0007F05013505EB850504EB8505E4E7204614
:104EC000FFF749FD4EE72046FFF745FD4AE701465B
:104ED000204600F018FA10B101232B60D9E7002317
:104EE0002B60D6E72046FFF736FD3BE708B330B42A
:104EF0000546037833B100230133DBB210F8014FCC
:104F0000002CF9D101335B0013800B7003234B702D
:104F10002C7864B12846022300255A1CD2B2CC5406
:104F20000233DBB28D5410F8014F002CF5D130BCA8
:104F30007047704710B513460222C0F89422C3612F
:104F400003620A46002100F0FDF9002010BD08B5FB
:104F500013460A46002100F0F5F9002008BD10B5FF
:104F600013460322C0F89422C0F85C31C0F86031C7
:104F70000A46002100F0EEF9002010BD08B51346E6
:104F80000A46002100F0E6F9002008BD08B5042318
:104F9000C0F8943200231A46194600F0D3F90020D5
:104FA00008BD08B50523C0F8943200231A461946F7
:104FB00000F0D0F9002008BD08B500220F491048C4
:104FC000FFF754FB70B90F490D48FFF766FB60B956
:104FD0000D490B48FFF71CFB50B90948FFF764FB6C
:104FE00048B908BDFBF72CFFEDE7FBF729FFEFE71A
:104FF000FBF726FFF1E7FBF723FFF2E74001002074
:1050000018090020200000203001002000207047F7
:105010000020704710B5054C01462046FFF707FBFE
:105020002046FFF70AFB002010BD00BF1809002032
:1050300010B5064C002206492046FFF7F0FA054954
:105040002046FFF7F4FA002010BD00BF1809002029
:10505000C40F0020DC0B002012230B800048704797
:105060005C01002004230B80004870477001002081
:10507000A2B110B40B46541EE4B2023101EB44015C
:105080000024020F092A94BF303237321A7000010F
:105090005C7002338B42F4D110BC70477047000043
:1050A00038B51A230B800B4B186808331B68C018DF
:1050B00001D1094838BD094B1D68074C0822A11CC5
:1050C000FFF7D6FF042204F112012846FFF7D0FFB4
:1050D000EFE700BFE8F7FF1F74010020ECF7FF1FA8
:1050E00008B50A4602490348FFF700FF004808BD1B
:1050F000AC130020F85C000810B5044C0A462146A9
:105100000348FFF7F3FE204610BD00BFAC1300209C
:10511000E45C000808B50A4602490348FFF7E6FECA
:10512000004808BDAC130020C85C000808B50A465A
:1051300002490348FFF7DAFE004808BDAC1300201F
:10514000D45C000820B102280CBF01200220704767
:105150000020704702680E4B9A4200D0704700B59D
:1051600083B003F5DA33DA6942F40002DA61DB690D
:1051700003F400030193019B002211461420FCF765
:10518000CBF91420FCF7FAF903B05DF804FB00BF7B
:10519000005C004008B500F52C71D0F8E802FFF77C
:1051A0009CFA08BD08B501EB810300EBC303D3F8FB
:1051B0007C21D0F8E802FFF7BDFA08BD08B501EB85
:1051C000810300EBC303DA6BD0F8E802FFF7FAFAC9
:1051D00008BD08B5D0F8E802FFF79BFB08BD10B585
:1051E00004468368022B01D0FBF72AFE0121D4F884
:1051F000E802FFF778FBD4F8E802FFF74CFB10BD9C
:1052000010B50446D0F8E802FFF770FBA36923B19C
:10521000024A136943F00603136110BD00ED00E07C
:1052200008B5D0F8E802FFF76AFB08BD10B50446E0
:105230001D48C0F8E842C4F8C0021C4B03600823B4
:1052400043600223836000238361C3610362FCF730
:10525000BEFA30BB182300221146D4F8C002FDF775
:10526000C9F9582300228021D4F8C002FDF7C2F901
:10527000C02300228121D4F8C002FDF7BBF94FF40E
:10528000887300220121D4F8C002FDF7B3F94FF46E
:10529000807300228221D4F8C002FDF7ABF9002010
:1052A00010BDFBF7CDFDD5E7AC150020005C00403C
:1052B00008B5D0F8C002FCF703FBFFF743FF08BDB9
:1052C00010B51C4613462246D0F8C002FDF770F810
:1052D000FFF738FF10BD08B5D0F8C002FDF7A2F8FF
:1052E000FFF730FF08BD08B5D0F8C002FDF70DF993
:1052F000FFF728FF08BD08B5D0F8C002FDF740F958
:10530000FFF720FF08BDD0F8C02211F0800F08D1B0
:1053100001F07F0101EB810102EBC10191F86A010B
:10532000704701F07F03013303EB830302EBC303F8
:105330009878704708B5D0F8C002FCF7DAFAFFF7A2
:1053400001FF08BD08B5D0F8C002FDF7C1F8FFF7AE
:10535000F9FE08BD08B5D0F8C002FDF794F8FFF7D4
:10536000F1FE08BD08B5D0F8C002FDF7A8F808BDE9
:1053700000487047400600207047704700F000B8B2
:1053800000F024B870B500250C4E0D4CA41BA410E1
:10539000A54209D100F078F800250A4E0A4CA41B5A
:1053A000A410A54205D170BD56F8253098470135A7
:1053B000EEE756F8253098470135F2E7705D0008B2
:1053C000705D0008705D0008785D0008024B0146C2
:1053D000186800F00BB800BF90010020034602449B
:1053E000934200D1704703F8011BF9E738B5054631
:1053F000002943D051F8043C0C1F002BB8BFE4181F
:1054000000F040F81E4A1368104633B96360146018
:105410002846BDE8384000F036B8A3420BD92168D1
:105420006218934201BF1A685B6852182260636079
:105430000460EDE713465A680AB1A242FAD9196826
:105440005818A0420BD120680144581882421960B4
:10545000DED110685268014419605A60D8E702D959
:105460000C232B60D4E7206821188A4201BF116801
:1054700052680918216062605C60C9E738BD00BFEE
:105480006008002070477047F8B500BFF8BC08BC42
:105490009E467047F8B500BFF8BC08BC9E467047F2
:1054A00002030405060708090A0B0C0D0E0F101065
:1054B00030000000353000003130300000000000C6
:1054C00000000000010203040607080900010203AE
:1054D0000405000000000000000000001714000890
:1054E0001914000800000000000000000000000087
:1054F000000000000000000000100010001000106C
:10550000001000100000001000000000002800281B
:105510000028000000000000000000000000000063
:1055200000240024007C00240048007C004800483F
:1055300000000000003800540050003800140054EF
:1055400000540038001000000020005400580030C3
:10555000002800540014000800000000001000287B
:10556000002800100034004800480034000000000B
:1055700000100010001000000000000000000000FB
:105580000000000000080010002000200020002083
:105590000020002000100008002000100008000873
:1055A0000008000800080008001000200010003863
:1055B00000100028000000000000000000000000B3
:1055C0000000000000100010007C0010001000001F
:1055D00000000000000000000000000000000000CB
:1055E000000000100010001000000000000000008B
:1055F0000000003800000000000000000000000073
:10560000000000000000000000000010000000008A
:1056100000080008001000100010001000200020FA
:1056200000000000003800440044005400440044DE
:10563000004400380000000000100030005000104E
:10564000001000100010001000000000003800449E
:1056500000440004000800100020007C000000004E
:10566000003800440004001800040004004400381E
:105670000000000000080018002800280048007CF6
:105680000008000800000000007C00400040007896
:10569000000400040044003800000000003800440A
:1056A000004000780044004400440038000000003E
:1056B000007C0004000800100010002000200020E2
:1056C000000000000038004400440038004400445A
:1056D000004400380000000000380044004400444A
:1056E000003C0004004400380000000000000000FE
:1056F000001000000000000000000010000000008A
:105700000000000000000010000000000000001079
:105710000010001000000000000C003000400030BD
:10572000000C000000000000000000000000007CF1
:105730000000007C000000000000000000000000ED
:105740000060001800040018006000000000000065
:105750000038004400040008001000100000001091
:105760000000000000380044004C0054005C004081
:105770000040003800000000001000280028002829
:105780000028007C00440044000000000078004431
:105790000044007800440044004400780000000009
:1057A0000038004400400040004000400044003801
:1057B0000000000000700048004400440044004421
:1057C0000048007000000000007C00400040007CA9
:1057D000004000400040007C00000000007C0040D1
:1057E0000040007800400040004000400000000001
:1057F0000038004400400040005C00440044003891
:1058000000000000004400440044007C00440044C8
:105810000044004400000000003800100010001098
:105820000010001000100038000000000004000408
:1058300000040004000400040044003800000000DC
:1058400000440048005000600050004800480044F8
:1058500000000000004000400040004000400040C8
:105860000040007C000000000044006C006C00540C
:105870000044004400440044000000000044006470
:10588000006400540054004C004C00440000000030
:105890000038004400440044004400440044003800
:1058A00000000000007800440044004400780040FC
:1058B0000040004000000000003800440044004464
:1058C0000044004400540038000400000078004404
:1058D00000440044007800480048004400000000F4
:1058E0000038004400400030000800040044003844
:1058F00000000000007C00100010001000100010DC
:105900000010001000000000004400440044004467
:1059100000440044004400380000000000440044FB
:10592000004400280028002800100010000000009B
:1059300000440044005400540054006C0028002827
:10594000000000000044002800280010001000287B
:105950000028004400000000004400440028002803
:10596000001000100010001000000000007C000477
:1059700000080010001000200040007C0000000023
:10598000001800100010001000100010001000108F
:10599000001000180020002000100010001000105F
:1059A0000008000800000000003000100010001087
:1059B000001000100010001000100030001000282F
:1059C000002800440000000000000000000000006B
:1059D00000000000000000000000000000000000C7
:1059E000000000FE00200010000000000000000089
:1059F000000000000000000000000000003800442B
:105A0000003C0044004C0034000000000040004016
:105A10000058006400440044006400580000000086
:105A200000000000003800440040004000440038FE
:105A300000000000000400040034004C0044004456
:105A4000004C00340000000000000000003800445A
:105A5000007C00400044003800000000000C0010F2
:105A6000007C00100010001000100010000000006A
:105A7000000000000034004C00440044004C00349E
:105A800000040078004000400058006400440044D6
:105A900000440044000000000010000000700010EE
:105AA00000100010001000100000000000100000A6
:105AB000007000100010001000100010001000E036
:105AC0000040004000480050006000500048004482
:105AD0000000000000700010001000100010001006
